:020000040800F2
:10000000E88F0020810200086F5A00083B4C00086E
:100010006D5A0008590E0008457B000800000000DA
:10002000000000000000000000000000C101000806
:10003000291C0008000000001D020008A56500083A
:100040009B0200089B0200089B0200089B0200081C
:100050009B0200089B0200089B0200089B0200080C
:100060002B1C00089B0200089B0200089B02000852
:10007000151A00089B020008211A00089B020008BC
:100080009B0200089B0200089B0200089B020008DC
:10009000E91100089B0200089B0200089B0200086F
:1000A0009B0200089B0200089B0200089B020008BC
:1000B0009B0200089B0200089B0200089B020008AC
:1000C0009B0200089B0200089B0200089B0200089C
:1000D0009B020008ED7A00089B0200089B020008C2
:1000E0009B0200089B0200089B0200089B0200087C
:1000F0009B0200089B0200089B0200089B0200086C
:100100009B0200089B0200089B0200089B0200085B
:100110009B0200089B020008756600089B0200080D
:100120009B0200082D1A00082F1A00089B020008E5
:100130009B0200089B0200089B0200089B0200082B
:10014000B11200089B0200089B0200089B020008F5
:100150009B0200089B0200089B020008197B000814
:100160009B0200089B0200089B0200089B020008FB
:100170009B0200089B0200089B0200080000000090
:100180009B0200089B0200089B0200089B020008DB
:100190009B0200089B0200089B0200089B020008CB
:1001A00000000000000000009B020008DFF80CD0F7
:1001B00000F04AFB0048004751940008E88F0020F7
:1001C0002C4B19680868B0E8F04F80F30988BFF33A
:1001D0006F8F4FF0000080F311887047000000001F
:1001E00008480068006880F308884FF0000080F33A
:1001F000148862B661B6BFF34F8FBFF36F8F00DF15
:1002000000BF00BF08ED00E0DFF80C00016841F41A
:1002100070010160704700BF88ED00E0EFF30980D6
:10022000BFF36F8F134B1A681EF0100F08BF20ED3D
:10023000108A20E9F04F106009B44FF0000080F3FD
:100240001188BFF34F8FBFF36F8F09F081FE4FF01E
:10025000000080F3118809BC19680868B0E8F04F05
:100260001EF0100F08BFB0EC108A80F30988BFF3AE
:100270006F8F704748000020EFF305807047000043
:100280000648804706480047FEE7FEE7FEE7FEE730
:10029000FEE7FEE7FEE7FEE7FEE7FEE7656600082D
:1002A000AD0100082DE9F05F0546002092469B460F
:1002B00088460646814640241BE02846414647467C
:1002C000224600F09BF953465A46C01A914110D37A
:1002D00011461846224600F082F92D1A67EB0108F4
:1002E0004F4622460120002100F079F917EB000962
:1002F0004E41201EA4F10104DFDC484631462A4667
:100300004346BDE8F09F40EA01039B0703D009E0A4
:1003100008C9121F08C0042AFAD203E011F8013BF1
:1003200000F8013B521EF9D27047D2B201E000F84A
:10033000012B491EFBD270470022F6E710B5134689
:100340000A4604461946FFF7F0FF204610BD2DE986
:10035000FE4F804681EA0300C00F0C46009021F05A
:10036000004123F00045B8EB0200A94105D2404608
:10037000214690461C460B46024623F0004010439F
:1003800047D0270DC7F30A00C3F30A510290401A61
:10039000019040286BDAC3F3130040F4801B0098EF
:1003A000924620B10023D2EB030A63EB0B0B0198BA
:1003B0005946C0F14002504600F011F906460D467C
:1003C00050465946019A00F029F910EB08006141A6
:1003D000002487EA115284EAE7731A4340D0009A56
:1003E00062B3019A012A4FEA075215DC001B61EB48
:1003F00002014FF0004202EA0752CDE90042001C20
:1004000041F5801132462B4600F060F903B0BDE89B
:10041000F08F40462146F9E7001B61EB0201001C0A
:1004200041F5801300185B412018A2F5001747EB37
:10043000030140EAD570B6196D4111E06D084FEA2D
:10044000360645EAC0754FEA0752001B61EB020110
:10045000001C41F5801149084FEA30000019514154
:1004600032462B4603B0BDE8F04F00F020B90098AB
:10047000012240000023D0EB020263EBE0730098FE
:1004800021464FEAE074B8EB000061EB0401E9E7B4
:1004900083F000435BE781F0004158E72DE9FE4F10
:1004A00081EA030404F0004421F0004100944FF07D
:1004B000000B23F0004350EA01045ED052EA03042B
:1004C0005BD0C3F30A54C1F30A552C44A4F2F334AD
:1004D0000194A0FB0254C1F3130141F48011C3F352
:1004E000130343F4801301FB024400FB034E840A10
:1004F000970A44EA815447EA8357A4FB07680295A8
:100500008D0A05FB07854FEA932C04FB0C54270545
:10051000029D4FEA065847EA1637B5EB08056EEB21
:10052000070C870E920E47EA811742EA8312A7FB57
:100530000201B6EB0B0164EB00042B0D43EA0C3314
:100540005E1844EB1C50DA465146E7FB0201C5F346
:1005500013044FEA0B3343EA14534FEA0432019C6D
:1005600043EA0603A4F10C040294009CCDE900B414
:1005700000F0ACF803B0BDE8F08F00200146F9E7C9
:1005800000F0004230F000400AD0C10D01F560716A
:10059000C0F3160042EA0151C208400711437047F8
:1005A00000200146704701F0004330B421F00041C3
:1005B00050EA010206D00A0DA2F56072C1F31301E0
:1005C000002A02DC30BC00207047440F44EAC1041A
:1005D000C100E01830BC00EBC25000F031B8202A56
:1005E00004DB203A00FA02F1002070479140C2F18A
:1005F000200320FA03F3194390407047202A04DBBC
:10060000203A21FA02F00021704721FA02F3D0408B
:10061000C2F120029140084319467047202A06DBA8
:10062000CB17203A41FA02F043EAE07306E041FAC0
:1006300002F3D040C2F120029140084319467047AE
:100640000029A8BF7047401C490008BF20F00100E6
:10065000704710B4B0FA80FC00FA0CF050EA0104C4
:1006600004BF10BC704749B1CCF1200421FA04F456
:1006700011FA0CF118BF012121430843A3EB0C012F
:10068000CB1D4FEA00614FEA102042BF002010BC92
:10069000704700EBC35010440029A4BF10BC704742
:1006A000401C490008BF20F0010010BC704710B585
:1006B000141E73F1000408DA401C41F10001921885
:1006C0005B411A4301D120F0010010BD2DE9F04D2E
:1006D00092469B4611B1B1FA81F202E0B0FA80F283
:1006E00020329046FFF77BFF04460F4640EA0A009F
:1006F00041EA0B0153465A46084313D0114653EAC8
:10070000010019D0C8F140025046FFF777FF0546B7
:100710000E46504659464246FFF761FF084305D052
:10072000012004E020463946BDE8F08D0020054355
:1007300046EAE0762C4337430A986305E40AA0EBC7
:1007400008000022FD0A44EA47540A3002D500207E
:100750000146E9E7010510196941DDE9084500197D
:100760006941BDE8F04DA2E72DE9F04D81EA0304AF
:1007700004F0004B21F0004514464FF0000A23F02E
:10078000004150EA050220D054EA01021DD0C5F311
:100790000A570246C5F31303C1F31300C1F30A5607
:1007A00040F4801543F48013A7EB0608101BD646CF
:1007B00008F2FD3873EB050002D308F1010801E0EF
:1007C00092185B41B8F1000F03DA00200146BDE842
:1007D000F08D00204FF48011064684460EE0171B72
:1007E00073EB050705D3121B63EB050306434CEAC5
:1007F000010C49084FEA300092185B4150EA0107AA
:10080000EDD152EA030012D082EA040083EA050126
:10081000084305D0101BAB4106D20122002306E09D
:1008200000224FF0004302E06FF0010253101AEB78
:1008300006004CEB085110EB0A0041EB0B01BDE840
:10084000F04DFFF734BF0000064C074D06E0E068AE
:1008500040F0010394E8070098471034AC42F6D307
:10086000FFF7A8FC58B0000878B000080EB5C10F1B
:1008700080EAE0700844CA07002140F233438DE863
:100880000E000A460B46FFF721FF03B000BD0EB570
:1008900040F2334102910021CDE900110A460B4696
:1008A000FFF714FF03B000BD70B5C1F30A5201F0A9
:1008B00000450024C1F3130140F2FF3341F48011DD
:1008C0009A4201DA002070BD40F233439A42A2F20C
:1008D000334203DC5242FFF791FE00E090402C438C
:1008E000F1D0404270BD70B58C1810F8015B15F066
:1008F000070301D110F8013B2A1106D110F8012B92
:1009000003E010F8016B01F8016B5B1EF9D12B07B6
:1009100005D40023521E0DD401F8013BFAE710F86C
:10092000013BCB1A921C03E013F8015B01F8015B59
:10093000521EF9D5A142D8D3002070BD30B50C4667
:1009400005000CD0022C0AD90548A11E02882846B1
:1009500001F064FE291901F8020D000A487030BD4B
:10096000282D002030B50C46050008D0022C06D9F1
:10097000FF22611E01F068FE291901F8010C30BD4B
:1009800010B5044604F1440190ED243A274891EC57
:10099000030A0C39D1EC031A01F00CFC234801F0D6
:1009A0005DF901F071FCD4ED181A2149C4ED1B1A50
:1009B00084ED181AC4ED190A84ED1A0AD4ED110A4F
:1009C000B1EE080A80EE802A84ED1E2AD4ED120AC8
:1009D00080EE802A84ED1F2AD4ED130A80EE802A4F
:1009E000F7EE000A84ED202A94ED170A84ED210A1F
:1009F00031EE610A10EE100A884204D994ED1D0A06
:100A000030EE600A08E010EE100A0A4994ED1D0A63
:100A1000884203DD30EE200A84ED1D0ADFED060A70
:100A200000EE601A84ED1C1A10BD0000288600201C
:100A3000000096C3000096430000B44370B504461E
:100A40002DED068B90F89500002844D100254FF439
:100A50007A76204600F0D8F894ED0E0A01207AEE5E
:100A600080AA94ED0F0A38EE008A94ED100A78EE11
:100A7000808A94ED110A39EE009A94ED120A79EE0B
:100A8000809A94ED130A3AEE00AA02F09BFB6D1CCB
:100A9000B542DEDBB7EE001A9FED100A0120CAEE68
:100AA000800AC4ED050AC8EE000AC4ED060AC8EEC5
:100AB000800A70EEC10AC4ED070AC9EE000AC4ED4F
:100AC000080AC9EE800AC4ED090ACAEE000AC4ED9C
:100AD0000A0A84F89500BDEC068B70BD00007A44CC
:100AE00070B50E46044601461546282000F08AF9E6
:100AF000022002F067FB0A21292000F083F902207E
:100B000002F060FB0121642000F07CF9022002F079
:100B100059FB44F08001252000F074F9022002F016
:100B200051FB3146262000F06DF9022002F04AFB0D
:100B30000321342000F066F9022002F043FB032178
:100B4000672000F05FF9022002F03CFB81212A209F
:100B500000F058F9062002F035FB45F0800127200F
:100B600000F050F9BDE87040022002F02BBB0000FD
:100B700030B585B0002414220B496846FFF7C3FB4B
:100B80004FEA0D0505EB4400417815F8140000F01C
:100B900039F9012002F016FB641CE4B20A2CF1D3EF
:100BA00004F04CF805B030BD44AA0008F8B5134F66
:100BB00015460E46044600224021384602F041FC0C
:100BC0000F4944F0800037240870891C4A1E0870C1
:100BD0000123891E0B48009403F096F908492B461F
:100BE0003246891C0748009403F08EF9044601221E
:100BF0004021384602F025FC2046F8BD0014024092
:100C0000B403002034300020F0B587B0044602F071
:100C10001DFC00EE100AF8EE400A9FED601A0E224D
:100C200002A980EE810A3B2084ED220AD4ED230A3A
:100C300070EE600AC4ED240A84ED230AFFF7B6FFC4
:100C400084F89600062269464920FFF7AFFFBDF8F9
:100C5000080040BA06B22680BDF80A0000EE106A0D
:100C600040BA05B26580BDF80C00F8EEC00A40BA83
:100C700003B2A380BDF80E0040BA02B26282BDF892
:100C8000100040BA01B2E180BDF8120040BA00B2D3
:100C90002081BDF814707FBA3FB26781DDF800C0D3
:100CA000C4F80CC0BDF804C0A4F810C09FED3C0A05
:100CB00020EE801A00EE905AF8EEE00A60EE801AFC
:100CC00000EE903AF8EEE00A20EE802A00EE101ACC
:100CD000DFED340AB8EEC00AC0EE202A00EE100A9A
:100CE00004F13800B8EEC00A80EE203A00EE107A27
:100CF000B8EEC00AC0EE203A80EC061AB4F90C0037
:100D000000EE100AB8EEC00A84ED140AB4F90E0021
:100D100000EE100AB8EEC00A84ED150AB4F910000E
:100D200000EE100AB8EEC00A84ED160A00EE102A92
:100D3000F8EEC00A9FED1C4A80EE840AF3EE050A25
:100D400030EE200A84ED170A94F89500012823D18B
:100D500094ED050A31EE400A84ED0E0A94ED060A80
:100D600031EEC00A84ED0F0A94ED070A32EE400A14
:100D700084ED100A94ED080A32EEC00A84ED110ADF
:100D800094ED090A33EE400A84ED120A94ED0A0A42
:100D900033EEC00A84ED130A07B0F0BD00007A44B8
:100DA000000080396F1283415CEFA64390ED180A72
:100DB00080ED1B0A9FED030A80ED1C0A80ED1D0AE1
:100DC000704700000000000008490A48084BD1F8AD
:100DD000842000689A4202DA41F2873103E001225E
:100DE00081F89420002181637047000090850020E5
:100DF000000048428C3000200421014803F056BC1A
:100E00008C300020F8B5114F0E46044600224021D8
:100E1000384602F016FB04F07F000D4C3725621CAB
:100E200020700123511E0B48009503F06DF82670C9
:100E3000621C0123511E0748009503F065F801224A
:100E40004021384602F0FDFA0020F8BD00140240AF
:100E5000B403002034300020FEE700004449252878
:100E60000A6870D2DFE800F01315181B1E21242732
:100E70002A2D303336393C3F4245484B4E5154576A
:100E80005A5D606366696C707376797C7F000020C0
:100E90006BE040F6ED6068E040F6186065E040F613
:100EA0004C5062E040F68E405FE040F6D9305CE0A6
:100EB00040F62F3059E040F68F2056E040F6F6100D
:100EC00053E040F6681050E04FF40E604DE040F6FD
:100ED00061004AE04FF4FD6047E040F2767044E084
:100EE00040F20C7041E040F2A6603EE040F2476004
:100EF0003BE040F2EC5038E040F2975035E040F2F1
:100F0000475032E040F2FB402FE040F2B4402CE08A
:100F100040F26F4029E040F2314026E040F2F330E9
:100F200023E040F2BB3020E040F286301DE040F28A
:100F300052301AE04FF4497017E040F2F52014E007
:100F400040F2CB2011E012E04FF429700DE040F2A6
:100F50007D200AE040F25A2007E040F2372004E00A
:100F60004FF4067001E040F2F910D062C86070479B
:100F70001C3100200021014803F098BB1C310020E7
:100F80007047000010B5054C22685063084602F017
:100F900019F921680020486310BD00001C310020B1
:100FA0002DE9F04138484FF487744FF4FA76C07851
:100FB000072816D2DFE800F0150417283847580034
:100FC000314F002517F1040737F82500FFF746FFDA
:100FD00007EB850041882046FFF7D4FF6D1CB54222
:100FE000F2DBBDE8F081294F002500BF37F825006E
:100FF000FFF734FF07EB850041882046FFF7C2FF6B
:101000006D1CB542F2DBECE7214F002537F82500D7
:10101000FFF724FF07EB850041882046FFF7B2FF6A
:101020006D1CB542F2DBDCE71A4F002537F82500CE
:10103000FFF714FF07EB850041882046FFF7A2FF6A
:101040006D1CB542F2DB144F002500BF37F82500B8
:10105000FFF704FF07EB850041882046FFF792FF6A
:101060006D1CB542F2DBBCE70C4F002537F82500BC
:10107000FFF7F4FE07EB850041882046FFF782FF6B
:101080006D1CB542F2DBACE730040020040C0020FC
:10109000D4130020A41B002074230020442B002024
:1010A00010B50C20FFF7DAFE4FF48774C8212046F4
:1010B000FFF768FF0820FFF7D1FEC8212046FFF7A1
:1010C00061FF0F20FFF7CAFEC8212046FFF75AFF35
:1010D0000820FFF7C3FEC8212046FFF753FF0F206B
:1010E000FFF7BCFEC8212046FFF74CFF1120FFF799
:1010F000B5FEC8212046FFF745FF0F20FFF7AEFEE3
:10110000C8212046FFF73EFF0820FFF7A7FEC821B1
:101110002046FFF737FF1120FFF7A0FEC821204629
:10112000FFF730FF0F20FFF799FEC8212046FFF799
:1011300029FF0820FFF792FEC8212046FFF722FF73
:101140000F20FFF78BFE4FF4FA712046FFF71AFFCE
:10115000BDE810404FF47A7002F034B810B50D209D
:10116000FFF77CFE4FF4877464212046FFF70AFFE7
:10117000322002F027F80D20FFF770FE6421204690
:10118000FFF700FF322002F01DF80D20FFF766FE8A
:1011900064212046FFF7F6FE322002F013F81420F7
:1011A000FFF75CFE2046BDE810404FF47A71FFF770
:1011B000E9BE000010B50421094802F03DF90949D3
:1011C0000128487004D18A7812B9CA78521CCA70B2
:1011D000CA78062A01D90022CA70887010BD0000A2
:1011E000000402403004002006480068406980077F
:1011F00006D505480122436804480168014818479C
:1012000070470000902F0020E02C00201C000020E0
:101210008EB0224E224D234C4FF0FF3940F2112761
:101220000DF124084A4605A9F06909F0F1F805987E
:10123000B84206D1142241466846FFF764F81A48BE
:1012400009E0A0F20121032908D81422414668468A
:10125000FFF759F81548D0F800C015E0A0F5007167
:101260000B3902D0491C08D013E0142241466846CD
:10127000FFF749F8D5F800C006E014224146684659
:10128000FFF741F8D5F804C0DDE90501DDE90723E2
:10129000E0476088401C6080C4E700000000002038
:1012A000DC030020042D0020FC030020C4030020E8
:1012B000064800684069800706D505480222436851
:1012C000044801680148184770470000B82F002003
:1012D000E02C0020200000208EB0184E184C4FF05B
:1012E000FF3840F2012709AD424605A9306A09F0EE
:1012F0008FF80598B84206D0A0F50071023902D0E7
:10130000091F09D015E0142229466846FEF7FBFFA5
:101310000C48D0F808C007E0142229466846FEF7BA
:10132000F2FF0948D0F800C0DDE90501DDE9072337
:10133000E0476088401C6080D6E700000000002085
:101340000A2D0020C4030020F00300203EB50D0A42
:10135000069C8DF804508DF80510110A8DF80610C2
:10136000190A8DF808108DF80930210A8DF80A1035
:1013700001A90091014606488DF807208DF80B4021
:1013800040F2FF130022006800F0B4F83EBD0000F8
:10139000240000203EB50D0A069C8DF804508DF8FF
:1013A0000510110A8DF80610190A8DF808108DF82D
:1013B0000930210A8DF80A1001A90091014606485A
:1013C0008DF807208DF80B404FF400730022006861
:1013D00000F090F83EBD0000240000200EB50A0A7F
:1013E0008DF804208DF8051001A9009101460448EC
:1013F0004FF404730022006800F07CF80EBD00007A
:10140000240000203EB50D0A069C8DF804508DF88E
:101410000510110A8DF80610190A8DF808108DF8BC
:101420000930210A8DF80A1001A9009101460648E9
:101430008DF807208DF80B4040F2FF230022006852
:1014400000F058F83EBD00002400002010B504460E
:10145000491EC8B200EB400101EB00100D4900220B
:1014600001EB800101230A614A614A62C1E9062356
:101470000A604A608A600B622046CA6001F0DCFAAA
:10148000204601F0DFFC2068416941F00201416122
:1014900010BD0000508B0020F0B5521E0E46D5B294
:1014A00005EB450101EB0512114993B001EB8204F4
:1014B00004F128010F460A4604F14403002101F01B
:1014C00041FB05EBC502684600EB820539461C224C
:1014D0002846FEF718FFD4E91101C5E907010023EA
:1014E00029461A46304608F033FF13B0F0BD00001D
:1014F000508B002010B58AB00C9C009192B10293E1
:101500000021CDE90321082205928DF818102168E9
:1015100007916168002308911A46694608F068FE41
:101520000AB010BD0193EBE78AB0084E6C464FF04D
:10153000FF3707AD3A466946706A08F069FF012334
:101540002A46211D009801F013FAF3E7000000205D
:101550002DE9F04104462DED068B8D48B0F90000D1
:10156000A0F6183000EE100AB8EEC00A00F062FBD8
:10157000DFED880A20EE200ADFED870A874D884ECE
:1015800060EE200AC5ED060A9FED868A206830B11C
:10159000012820D002287BD003281BD1D8E094ED6D
:1015A000060A814884ED010A94ED070A84ED020AD7
:1015B0003168D5ED060AB0EE480A884784ED030A83
:1015C000B0EEC00A10EE100AB0F17F5F02DA00BF81
:1015D00084ED038AD4E010EE900AFEF7D1FF41ECCF
:1015E000100B07F001F9B0EE409AF0EE609AE06956
:1015F000FEF7C6FF53EC192BFEF750FF41EC190B19
:10160000A869FEF7BDFF41EC100B06F0D9FCB0EE67
:1016100040AAF0EE60AAA069FEF7B2FF53EC1A2BC5
:10162000FEF73CFF53EC192BFEF732FFFEF7BBFF32
:101630006060A869FEF7A4FF41EC100B06F0C0FC47
:10164000B0EE409AF0EE609AE069FEF799FF53EC35
:10165000192BFEF723FF41EC190BA869FEF790FF49
:1016600041EC100B07F0C0F8B0EE40AAF0EE60AA13
:10167000A069FEF785FF53EC1A2BFEF70FFF53EC22
:10168000192BFEF764FEFEF78EFFA060A0E7FFE7D0
:1016900010EE900AFEF774FF41EC100B07F0A4F86F
:1016A000B0EE408AF0EE608AE069FEF769FF53EC25
:1016B000182BFEF7F3FE41EC180BA869FEF760FF4C
:1016C00041EC100B06F07CFCB0EE409AF0EE609A14
:1016D000A069FEF755FF53EC192BFEF7DFFE53EC24
:1016E000182BFEF7D5FEFEF75EFF6060A869FEF7D7
:1016F00047FF41EC100B06F063FCB0EE408AF0EEC1
:10170000608AE069FEF73CFF53EC182BFEF7C6FE3B
:1017100041EC180BA869FEF733FF41EC100B07F002
:1017200063F8B0EE409AF0EE609AA069FEF728FFE9
:1017300053EC192BFEF7B2FE53EC182BFEF707FE05
:10174000FEF731FFA06094ED040A84ED030A17E070
:1017500084ED018A84ED028A144FDFF8548084ED11
:10176000038A0025D8F8041007EBC50088476D1CD4
:10177000042DF7DBF1680C488847F1680D4888476D
:101780000D4841682046BDEC068BBDE8F041084796
:101790004C8700200000343D35FA8E3CA4830020A5
:1017A0006C0300200000000004010020848300205E
:1017B0007C0300203C010020CC00002019490A785D
:1017C0001949012A17D0002A14D191F83B2091F829
:1017D0003630D21A00EE102AB8EEC00A80ED060AA2
:1017E00011F82C2F4979511A00EE101AB8EEC00AE0
:1017F00080ED070A7047B1F91E2000EE102AF8EEBE
:10180000C00A9FED0A0A80EE801A80ED061AB1F92F
:10181000201000EE901AF8EEE00A80EE801A80EDBB
:10182000071A7047C80000201085002000002544DA
:1018300030B50020094A0124034600BF52F82010A9
:101840004D884DB181F8043052F82010401CC0B2D0
:101850004B800228F2D330BD0C71F5E7FC2C002040
:101860000548B0F87C1021B15FF0000180F87E10CF
:1018700070470121FAE7000010850020044800218C
:10188000828B12B181778183704701228277FAE7D8
:101890006C87002004480021828B12B181778183FC
:1018A000704701228277FAE74C8700200448002124
:1018B000828B12B181778183704701228277FAE7A8
:1018C0008C87002030B50020074B0124024600BF62
:1018D00003EB40118D8B2DB18A77401C8A8304283D
:1018E000F6DB30BD8C77F8E78C86002030B5002021
:1018F000074B0124024600BF03EB40118D8B2DB135
:101900008A77401C8A830228F6DB30BD8C77F8E7A3
:101910000C87002004480021828B12B181778183DB
:10192000704701228277FAE7AC8700209FED0A0A10
:1019300080ED000A80ED010A80ED040A80ED030AC3
:1019400080ED020A80ED080A80ED090A80ED0A0A9E
:1019500080ED0B0A70470000000000009FED030AB5
:10196000002180ED000A01717047000000000000B6
:10197000F0B51E480078002834D11D4A1D4B1E4981
:1019800092F855500124C5B91D4692F85A702E6838
:101990000D462D6837B1012E01D1012D0DD01C60EF
:1019A0000C6016E092F85F7057B1022E01D1022D43
:1019B00003D002251D600D600BE01860086008E090
:1019C00092F8781029B10D498B7B0BB1887300E038
:1019D0008C7392F840200A492AB10C75B0EE000AC7
:1019E00081ED060AF0BD0875F0BD0000C8000020BA
:1019F000108500204C830020A4830020CC8300208D
:101A0000AC870020024A00211160516003F09ABFA8
:101A100030000020014801F041BA0000D43200201B
:101A2000014801F03BBA0000743200207047704753
:101A300001681823CAB2103AB2FBF3F2054B6FF3F8
:101A40000901032A9B5CC36500D9091D816508460D
:101A50007047000024AA000810B5014600208B69D9
:101A60008A6A4FF0C07453B1B3F5005F15D072B1FC
:101A7000012A0CD0022A0AD0032A09D104E01AB1A3
:101A8000012A06D0022A03D1C96AC90100D5012062
:101A900010BDC96AA142FAD010BD002AF7D0012AB0
:101AA000F2D0022AF3D0032AF3D010BD30B5046877
:101AB000256825F480252560046863608368402BD1
:101AC000036803D099600068C26030BD9A60006806
:101AD000C16030BDF0B500285FD08178C278890937
:101AE00041EA820102792D4C41EA8221C1F30A06C2
:101AF000A6F58066E68301794279490841EAC21178
:101B0000C1F30A05A5F5806525840188C1F30A03A0
:101B1000A3F58063638441788278C90841EA421161
:101B2000C1F30A02A2F58062A284018AC1F30A010C
:101B3000A1F5806121854779BF0984F8267047792E
:101B4000C7F3011784F82770C788E78207892783BE
:101B5000077B07B10127A776477B07B10127E77607
:101B6000C089608500201436282E00D8E083143503
:101B7000282D00D820841433282B00D860841432F8
:101B8000282A00D8A0841431282900D8208503F001
:101B90001BFB34F87C0F401C2080F0BD108500201A
:101BA00010B50446806B0068016821F001010160F6
:101BB000A06B00684068042802D10748FFF78AFF3D
:101BC000A16B162009684860A06B0068016841F0AD
:101BD0000101016010BD00001085002038B50168CA
:101BE00000250A684A680092CA6842F40052CA6036
:101BF0000168CA6842F01002CA600446094A90F8B7
:101C00003E0020280DD11623A262A38525642168F9
:101C1000A06B091D01F07CFA2068416941F0400188
:101C2000416138BD108500207047042001F0DEBA04
:101C300072B6FEE710EE100ADFED070AB0F18B4F27
:101C400002DD30EE600A704710EE100A10F16A5F94
:101C5000F9D930EE200A704700000046103090ECB1
:101C6000040A70471FB5064B04460FCB8DE80F00E2
:101C70006946204600F092F8204600F003F81FBDA8
:101C800058AA0008114A10B51ECA00F1100CB2EE95
:101C9000040A8CE81E000021016241620122816277
:101CA00080F82C2080ED0C0A8163C16301644164DB
:101CB0008164C16480F85010416580F8581080F844
:101CC0005910C16580F8601010BD000068AA0008B6
:101CD00070B505462DED048BB6EE008AB0EE409A45
:101CE00090ED061AF0EE480A90ED070A41EE410A1F
:101CF000D0ED041A40EE400A21EE800AD0ED051A1C
:101D000001EE810A06F032F8F0EE408AB0EE490AA0
:101D100000F098FA38EEC00A002460EE088AB0EEAF
:101D2000680A06F0B1F9B0EE408AB0EE680A06F033
:101D3000BFFD05F11000B1EE401AD0EC041AB0EE70
:101D4000480A00EE904A60EE213A20EE024A60EE28
:101D5000224A20EE030A40EEC23A00EE904A00EE1C
:101D6000A20A40EEC34A00EEA14A40EEE23A00EE7B
:101D7000C20A40EEA14A00EE834A41EE433A01EE28
:101D8000210A41EE024A01EE624A85ED070A10354A
:101D9000C5EC033ABDEC048B70BD000070B50D4678
:101DA0002DED028BF6EE008A91ED000A9FED268A5A
:101DB00080ED000A91ED010A0446B5EEC00AF1EE8D
:101DC00010FA28D0E86830B300F03CFA06F070FD55
:101DD00020EE280AF0EE000A06F0FEF984ED010A72
:101DE00095ED020AB5EEC00AF1EE10FA16D0E868D9
:101DF000A0B100F027FA06F05BFD20EE280AF0EE15
:101E0000000A06F0E9F984ED020AE868E06094F857
:101E10002C0030B109E084ED018AE1E784ED028A0B
:101E2000F3E794ED000A84ED0C0A94ED000AF2EE5B
:101E3000040A30EEC00AF0EE080A80EE201A84EDA3
:101E40000D1ABDEC028B70BDFFFF7F7F2DE9F04FB7
:101E500004462DED0E8B203083B00025B0EE64AA31
:101E6000F0EE43AAB0EE63BAF0EE44BAB0EE40CA68
:101E7000C0EC031AF0EE60CA94F82C00B0EE41DA20
:101E8000012814D194ED0C0AD4ED0D0A00EECA0A13
:101E900084ED0C0AD4ED000AB4EEE00AF1EE10FA7B
:101EA00005D2C4ED0C0A84F82C5084F8585094EDF7
:101EB000070AB6EE008AD4ED040A94ED053A94EDD3
:101EC000061AF0EE488A23EE009A50EEA08A61EEE0
:101ED000009AA94600EEC19AB0EE621A40EE839ACB
:101EE00040EE008AF0EE420AB0EE610ACA460126D0
:101EF000D34684F85060F0EE41EAB0EE60EAF0EECE
:101F000040DA00F040FAE8BBE168606D884211D920
:101F1000D4E90580E1692769CDE900012046FFF792
:101F2000B1FEDDE900016565C4E90601C4E9047894
:101F300084F85860B0EE6E1AF0EE4E0AB0EE6D0AFC
:101F400000F046FAF0EE682AB0EE692AF0EE491A7F
:101F500000F0F7F904F1380080EC030A94F82C0043
:101F6000012808D000F022FAD4ED010AB4EEE00A0C
:101F7000F1EE10FA20D804F1380007C881468A46ED
:101F8000934600E009E084F85050606D0A2801D3C0
:101F90000A2100E00021401A60652F460120B84662
:101FA00084F85900B0EE6B1AF0EE4B0AB0EE6A0AF4
:101FB00000F0E9F918B169E0606D401CECE784F8C5
:101FC0006050E168E06D2E46884214D9F0EE6B2A2D
:101FD000B0EE4B2AF0EE6A1AB0EE681AF0EE690A1B
:101FE000B0EE490A00F006F92046FFF771FE012025
:101FF000E66584F86000D4ED060A94ED040AD4ED99
:10200000051A94ED071A10EE008A61EEA0DA20EEB0
:1020100081EAF0EE6B2AB0EE4B2A40EE01DA00EED8
:1020200061EA00EEA08AF0EE6A1AB0EE681AF0EEED
:10203000690AB0EE490A00F084F900F0C9F9F0EE3F
:102040004E2AB0EE482AF0EE6D1A00F07AF904F14B
:10205000440080EC030A94F82C00012808D000F01A
:10206000A5F9D4ED020AB4EEE00AF1EE10FA7CD83C
:10207000D4E91270656C804684F85960E06D0A28D6
:1020800001D30A2100E00021401AE065B6EE000A03
:1020900000F0D8F8F0EE401AB0EE4D1AF0EE6C0AEF
:1020A000B0EE4C0A00F08DF9B0EE409AF0EE608A86
:1020B000B0EE418A02EE908A02EE107A01EE905A5A
:1020C00001EE10BA00EE90AA00EE109A00F032F97C
:1020D000D4ED0C1A00F075F9F0EE412AB0EE602A4A
:1020E000F0EE401AB0EE481AF0EE680AB0EE490A77
:1020F00000F020F9D4ED048A94ED058A94ED069A57
:10210000D4ED079AF0EE4A1A00F05BF928EE402A67
:1021100068EE802A68EEA01A09EE602A49EE012ACC
:1021200048EE411A09EEC12A28EE811A49EEE02A4A
:1021300049EE801A08EE201A78EE220A79EE211A6A
:1021400009EE401A38EE820AF0EE608AB0EE618A3B
:1021500084ED040AC4ED050A39EE811AC4ED061AAD
:10216000F0EE409A84ED071A00E020E029EEA90A7B
:10217000B0EE419A08EEA80A08EE080A09EE090A2C
:1021800000F068F829EE801A68EE800A68EE001AFE
:1021900029EE000A84ED041AC4ED050AC4ED061AFE
:1021A00084ED070A03B0BDEC0E8BBDE8F08FE06D47
:1021B000401C6AE7002110B5F0EE434A044604EEE5
:1021C000101A03EE901A03EE101AFFF73FFE94F870
:1021D0002C0001280AD194F85800002806D1204686
:1021E000BDE810409FED020AFFF772BD10BD000070
:1021F0000000000010B52DED048BF0EE419AB0EE1A
:10220000609AF0EE408A00F0ADF800F0FDF8B0EE14
:10221000408AF0EE692AB0EE492AF0EE681A00F022
:10222000A1F800F0F1F8F0EE400AB0EE480A05F02F
:102230009DFDDFED030ABDEC048B20EE200A10BDEE
:10224000E02E6542DFED020A20EE200A7047000012
:1022500035FA8E3C10EE100A9FED091A0749A1EBE2
:10226000600020EE010A00EE900A20EE201A9FED99
:10227000050A01EE600A20EE200A704712141F5F63
:1022800012D3363FFF51D83F10B52DED088BB6EE77
:10229000008AB0EE40AA01EE418A2AEE200AF0EE52
:1022A000609AB0EE419AF0EE618A01EE210AF0EEFA
:1022B000480A49EEE90A05F059FDDFED1BAAB0EE28
:1022C000491AF0EE681A20EE2ABA2AEE010AF0EE58
:1022D000000A01EEE90A20EE200A10EE100A10F1C1
:1022E000814F02D39FED110A09E010EE100AB0F100
:1022F0007E5F02DB9FED0E0A01E005F0A1FC60EEBF
:102300002ABA08EEE88A2AEE280A09EE890AF0EECF
:10231000480A05F02BFD20EE2A1AB0EE4B0AF0EE2B
:102320006B0ABDEC088B10BDE02E6542DB0FC9BF08
:10233000DB0FC93F30EE210A70EE820A31EE221A1D
:102340007047B0EE603A61EE210A63EE223A40EE49
:10235000620A41EE423A20EE021A03EE611AB0EE32
:10236000630A7047B0EE603A61EE210A63EE223AEA
:1023700040EE620A41EE423A20EE021A03EE611A82
:10238000B0EE630A7047B5EEC00AF1EE10FA0BD159
:10239000F5EEC00AF1EE10FA06D1B5EEC01AF1EE74
:1023A00010FA01D1012070470020704720EE000A8A
:1023B00060EEA00A21EE011A30EE200A30EE010A8A
:1023C000704720EE210A60EEA10A21EE211A704723
:1023D00010B52DED048BF0EE418AB0EE608AB0EEC0
:1023E000409AFFF7E3FFFFF735FFF0EE401AB0EE3B
:1023F000681AF0EE480AB0EE490ABDEC048BBDE85D
:102400001040FFF7DEBF000060EE001A20EEA02AA9
:1024100061EE012A0E4971EE821A71EEA21ADFED09
:102420000D2A11EE900A61EEA21AA1EB600002EEF5
:10243000100A61EE822ADFED081A42EEC21A61EE3E
:10244000821A20EE210A60EEA10A21EE211A7047BD
:1024500012141F5F12D3363FFF51D83F38B5002208
:102460000092044A0B460021146902460248A04724
:1024700038BD0000E02C0020902F002010B51C4833
:10248000DDE90541A2B2B0F9003052BA438012B280
:10249000240C028064BA84808CB264BAC4800914AB
:1024A00001720146D31A41F66414B1F91810E342DF
:1024B00001DA491C04E041F66414A34201DD491E1F
:1024C0000183B0F9181000EE102A00EE901A9FED6B
:1024D000091AB8EEC00AF8EEE00A00EE810ABDEE75
:1024E000C00A80ED050A818B491C818310BD000064
:1024F0006C8700200000004610B51C48DDE905414E
:10250000A2B2B0F9003052BA438012B2240C028059
:1025100064BA84808CB264BAC48009140172014622
:10252000D31A41F66414B1F91810E34201DA491CD8
:1025300004E041F66414A34201DD491E0183B0F9B1
:10254000181000EE102A00EE901A9FED091AB8EE4E
:10255000C00AF8EEE00A00EE810ABDEEC00A80ED86
:10256000050A818B491C818310BD00004C87002027
:1025700000000046194810B50068804718480068F8
:1025800080471848006880471748FFF76BFB1748DB
:10259000FFF768FB164841681648884716480068E8
:1025A0008047164840F28512154903681548984738
:1025B00005F0ECF8144C0121144822689047226879
:1025C000022113489047134800688047124800686A
:1025D0008047BDE81040002007F0FEBB1804002033
:1025E000FC000020A003002048880020288600204E
:1025F00084030020EC310020D42C002008040020AB
:10260000BE88002030320020E02C0020902F0020D7
:10261000B82F0020D8000020E400002010B558B1E9
:10262000084C491E0BD310F8013B5340DBB234F881
:10263000133083EA1222F4E74FF6FF7010BD104604
:1026400010BD000078AB000810B5054C04E000BFD9
:1026500010F8013B5340E25C491EF9D2104610BD10
:1026600078AA000810B504462D482F4902782D4855
:10267000012A90ED1C0A2ED0002A2BD184ED030AEA
:10268000B1F9162094ED020A00EE902A9FED271A68
:10269000F8EEE00A00EEC10A9FED251A84ED020A69
:1026A00090ED190A84ED050AB1F9180000EE100A40
:1026B000F8EEC00A80EE810AD4ED040A30EEC00ABA
:1026C000BAEE041AF3EE0E0A84ED040A05F03BFAA2
:1026D00084ED040A10BD84ED030AB1F92220DFED78
:1026E000150A00EE102AB8EEC00A80EE201A94ED0A
:1026F000020A30EE410A9FED101A84ED020A90EDB5
:10270000190A84ED050AB1F9240000EE100AB8EEAA
:10271000C00AC0EE010A94ED040A30EE800ACFE749
:10272000C800002090850020108500200AD7233C97
:102730000000C84300007A4400800945054890ED38
:102740001C0A054880ED020AB2EE040A80ED040A74
:102750007047000090850020A48300202DE9F047F9
:102760006F4D04462DED028B00686A4E6A4FDFF80C
:10277000AC81296800287BD0012815D0022877D0A9
:1027800003287ED197ED1C0A002084ED020A708395
:10279000A8F81A00E96863488847E9686248BDEC10
:1027A000028BBDE8F04708476048C07800285FD03A
:1027B0009FED5F0A5F4880ED050A9FED5F0A80ED9F
:1027C000070A9FED5E0A5E4880ED050A9FED5D8A6F
:1027D00080ED078A9FED5C0A5C4880ED050A9FED5D
:1027E0005C0A80ED060A9FED5B0ADFF86C9180EDD4
:1027F0000D0ADFF868A199ED150AB5EEC00AF1EEF1
:1028000010FA06D0F0EE480A4A488847B1EE400A6E
:1028100014E0BAF9220000EE100AB8EEC00A9FEDEB
:10282000501A4048C0EE010A94ED020A30EE600AE8
:1028300084ED020A2968D4ED030A8847BDEEC00A78
:1028400010EE100A708399ED160AB5EEC00AF1EE8B
:1028500010FA1AD02968F0EE480A3948884784ED02
:10286000080AD7ED1F0A9FED3F1A60EE810A31E09A
:1028700033E006E08847BDEEC00A10EE100AA8F863
:102880001A00BDEC028BBDE8F087BAF924009FED79
:10289000361A00EE100AF8EEC00A80EE810AD4ED76
:1028A000040ABAEE041A30EE200AF3EE0E0A84EDA2
:1028B000040A05F048F984ED040AD4ED050A2968F4
:1028C0001948F1EE600A884784ED080AD7ED1F0A1F
:1028D000F1EE600A1D482968CCE7D4ED030A94EDB7
:1028E000020A10488847BDEEC00A10EE100A708335
:1028F00094ED050A29680C48F1EE400A94ED040AAB
:10290000884784ED080AD7ED1F0A18482968F1EEB8
:10291000600AAFE74C870020908500206C8700207C
:102920006C030020AC010020E4010020CC830020D7
:102930000000FA433403002000504347000048429F
:10294000C4020020000000009A991141FC020020FE
:10295000EC51B83D00A00C46E88A0020108500200C
:1029600000007A440000C8C2008009451C02002013
:10297000F0B590F820500468A468012D05D0022D10
:1029800003D0416A41F4802153E014F0406F01D13B
:10299000E5004BD5C4F30164022C03D9416A41F42C
:1029A000000146E00125A5401D608D684FF4C0730D
:1029B0009DB1CE6835434E6845EAC605066803EB0F
:1029C0000417F5514FF4C275076805EB04150E693D
:1029D0007E51097D012905D009E00E88CD6845EAC0
:1029E0004655EBE701684E5946F480764E51117911
:1029F000D2F805504FF4C67641EA0525016806EB8A
:102A000004168D511178D2F801204FF4C47541EAB3
:102A10000221026805EB04155151006803EB041113
:102A2000425842F0010242500020F0BD416A41F498
:102A3000001141620120F0BD10B590F82020012A5C
:102A400007D0022A05D0416A41F480214162012069
:102A500010BD3B48D0F8002242F00102C0F800222D
:102A6000D0F8002222F47C52C0F80022D0F80022D4
:102A70004B6A42EA0322C0F800220A7D02F01F03DB
:102A800001229A40D0F81C329343C0F81C32CB6923
:102A9000B3B9D0F80C329343C0F80C328C894B6830
:102AA00064F31F434C6900EBC404C4F840320C8942
:102AB0000B6864F31F434C6900EBC404C4F8443250
:102AC000CB69012B16D1D0F80C321343C0F80C326D
:102AD0000C884B6864F31F434C6900EBC404C4F8D2
:102AE00040320C89CB6864F31F434C6900EBC4048B
:102AF000C4F844328B69002BD0F804320ED0134353
:102B0000C0F804320B69002BD0F8143208D01343FC
:102B1000C0F81432096A012904D008E09343EFE7B2
:102B20009343F5E7D0F81C121143C0F81C12D0F8FB
:102B3000001221F00101C0F80012002010BD0000B9
:102B40000064004030B590F82040012C05D0022CE4
:102B500003D0416A41F480215DE00468002955D02A
:102B60002469A40754D04FF4D874056804EB011409
:102B70002D5915F00405956005682D594ED0ED08C6
:102B8000556005682C5904F00204D4604FF4DA74DF
:102B9000056804EB01142D5905F00F051561056852
:102BA0002D59C5F30725956105682C59240C5461EE
:102BB0004FF4DC72046802EB0112A4581C70046824
:102BC000A458240A5C700468A458240C9C700468FF
:102BD000A258120EDA704FF4DE72046802EB011292
:102BE000A4581C710468A458240A5C710468A45891
:102BF000240C9C710468A258120EDA71006881B12D
:102C0000016941F020010161002030BDE468A8E7BE
:102C1000416A41F400114162012030BD6D0D156023
:102C2000AFE7C16841F02001C160EDE770B5040075
:102C300003D094F8200010B104E0012070BD2046BC
:102C400000F082F82068016841F00101016000F0A5
:102C5000FDFB0546052604E000F0F8FB401B0A28B2
:102C600011D820684068C007F6D02068016821F0BC
:102C70000201016000F0EAFB05460BE000F0E6FB14
:102C8000401B0A2806D9606A40F40030606284F86C
:102C90002060D2E7206840688007EFD4207E0128BA
:102CA000206801683DD021F080010160607E01282C
:102CB0002068016838D021F040010160A07E012821
:102CC0002068016833D021F020010160E07E0128F6
:102CD000206801682ED041F010010160207F01289A
:102CE0002068016829D021F008010160607F012877
:102CF0002068016824D021F004010160D4E90201B8
:102D00000843D4E90412114308436168491E08438B
:102D10002168C86100206062012084F82000002042
:102D200070BD41F08001C0E741F04001C5E741F0CE
:102D30002001CAE721F01001CFE741F00801D4E7F4
:102D400041F00401D9E70000F0B587B00446142132
:102D50006846FDF7F1FA364B3648DFF8D0E01968DF
:102D6000D4F800C0334A0325022609271030002476
:102D7000491CF44522D11960012907D1016841F0AD
:102D800000710160006800F000700590106840F06C
:102D9000080010601068CDE9005600F00800CDE989
:102DA000047069462448CDE9024500F02BFA002260
:102DB0000621142000F020FD142033E0DFF87CE031
:102DC000F44531D1D0F800C04CF0806CC0F800C0A0
:102DD000D0F800C001290CF0806CCDF814C0196047
:102DE00007D1016841F000710160006800F00070D7
:102DF0000590106840F002001060106802AB00F00F
:102E0000020005904FF44050CDE9000683E8B00081
:102E100069460B4800F0F6F900220621402000F038
:102E2000EBFC402000F0DAFC07B0F0BD006400408D
:102E30002800002030380240000C024000680040AA
:102E40000004024070B5044690F82000012804D028
:102E5000606A40F40020606218E0022084F82000DC
:102E60002068016821F00101016000F0EFFA0546D9
:102E70000EE000BF00F0EAFA401B0A2808D9606A99
:102E800040F400306062052084F82000012070BD0D
:102E900020684068C007EDD1606270BD2DE9F8433D
:102EA00004464FF00009CDF8009063484FF41651E6
:102EB000A56D0068B0FBF1F72E6894F85C1008204F
:102EC00000FA01F131420FD021680A6852070BD590
:102ED0000A6822F004020A6094F85C108840A86036
:102EE000606D40F00100606594F85C104FF00108DF
:102EF00008FA01F0304208D021684969090604D572
:102F0000A860606D40F00200606594F85C100420D9
:102F10008840304208D021680968890704D5A86034
:102F2000606D40F00400606594F85C1010208840EB
:102F3000304218D021680968090714D5A8602068B4
:102F40000168490304D50068000308D5A16C07E0B7
:102F50000168C90503D4016821F008010160216CF2
:102F600009B12046884794F85C1020208840304200
:102F700031D021680968C9062DD5A86094F83500BC
:102F800005282068016806D0490347D5006800037A
:102F90001DD4616C1CE021F01601016020684169BC
:102FA00021F080014161206C08B9A06C20B120683B
:102FB000016821F00801016094F85C103F2088400E
:102FC000A86084F8358084F83490216D1FE0E16BAF
:102FD00009B120468847606D00282BD0606DC0077E
:102FE00014D0052084F835002068016821F0010123
:102FF00001600098401C0090B84203D82068006827
:10300000C007F6D184F8358084F83490E16C00294B
:1030100010D001B02046BDE8F04308470168C9055B
:10302000D5D4016821F01001016084F8358084F85E
:103030003490CCE7BDE8F883440000202DE9F0414E
:10304000044600F003FA06465CB1022084F835001D
:10305000002584F834502068016821F001010160E6
:103060000DE00120BDE8F08100F0F0F9801B05289B
:1030700005D920206065032084F83500F2E7206838
:103080000068C007F0D12268116820480140D4E9E7
:1030900001031843D4E903363343184363691843E3
:1030A000A3691843E3691843236A18430843616A14
:1030B000042903D1D4E90B13194308431060206895
:1030C0004069666A20F0070130460E430127042854
:1030D0000CD1A06A0643E06A40B12046FEF7BCFC72
:1030E00020B14020606584F83570BAE720684661F9
:1030F0002046FEF79DFC94F85C203F2191408160C2
:10310000656584F835700020ACE700003F8010F062
:1031100070B5044690F83400002501280CD0012039
:1031200084F8340094F835600020012E06D084F82D
:1031300034000225284670BD022070BD022684F8A6
:10314000356060652046FEF7B1FC2068016841F0FB
:1031500001010160EEE72DE9F0410446866D90F82B
:103160003400002501280DD0012084F8340094F8A3
:1031700035700020012F07D084F83400022528463E
:10318000BDE8F0810220FBE7022784F83570606516
:103190002046FEF78BFC94F85C103F208840B0601E
:1031A0002068016841F016010160206C20B12068A0
:1031B000016841F0080101602068016841F00101E7
:1031C0000160DCE770B5044600F040F90546601C7C
:1031D00002D004480078044400F038F9401BA042B3
:1031E000FAD370BD3800002070470000044910B5C4
:1031F0000A68024202D00860FFF7F6FF10BD000027
:10320000143C01402DE9F84FDFF8F8A10022012419
:1032100003254FF00F090AF1040BAAF1040E00BFB9
:103220000B6804FA02F63340B34270D10F7907F00D
:103230000307012F01D0022F16D187684FEA4208F9
:1032400005FA08FC27EA0C07D1F80CC00CFA08FCB8
:103250004CEA070CC0F808C04768B7430E79C6F3BC
:10326000001696403E4346600E79F643B6070AD0F4
:10327000C7684FEA420C05FA0CF6B7438E6806FAA7
:103280000CF63E43C6600E7906F00306022E10D1FE
:10329000D60800EB8608D8F8206057074FEAD76CAD
:1032A00009FA0CF7BE430F6907FA0CF73743C8F861
:1032B000207006684FEA420C05FA0CF7BE430F79FE
:1032C00007F0030707FA0CF7374307604E6816F458
:1032D000403F1CD04C4E376847F480473760366813
:1032E00022F0030706F480460096484E07EB060CD2
:1032F000DCF8086897073F0F09FA07F826EA08067E
:10330000DFF80C81404503D14FF0000841E072E046
:10331000DFF80081404502D14FF0010839E0DFF8C5
:10332000F880404502D14FF0020832E0DFF8EC802F
:10333000404502D14FF003082BE0DFF8E480404520
:1033400002D14FF0040824E0DFF8D880404502D1D4
:103350004FF005081DE0DFF8D080404502D14FF066
:10336000060816E0DFF8C480404502D14FF0070898
:103370000FE0DFF8BC80404502D14FF0080808E0BC
:10338000DFF8B080404502D14FF0090801E04FF06E
:103390000A0808FA07F848EA0608CCF80888DAF8B4
:1033A00000605746D1F804C09E435FEACC2C00D59C
:1033B0001E433E60DBF800605F46D1F804C09E43C8
:1033C0005FEA8C2C00D51E433E60DEF80060774635
:1033D000D1F804C09E435FEA8C3C00D51E433E609A
:1033E000084F083F3E68D1F804C09E435FEACC3CDA
:1033F00000D51E433E60521C102AFFF411AFBDE8F9
:10340000F88F0000083C0140443802400030014081
:10341000000002400004024000080240000C02408C
:10342000001002400014024000180240001C02403C
:1034300000200240002402400069084000D0012022
:1034400070470AB1816170470904FBE70148806851
:10345000704700003800002090F83D20202A01D05D
:1034600002207047242280F83D200268136823F070
:10347000010313600268536A23F010035362026869
:10348000536A0B43536201680A6842F001020A6002
:10349000202180F83D100020704790F83D20202A20
:1034A00001D002207047242280F83D200268136872
:1034B00023F00103136003685A6A22F00F020A43E3
:1034C00091B2596201680A6842F001020A60202143
:1034D00080F83D100020704770B5040025D094F8A6
:1034E0003D00002520B984F83C50204600F0B8F893
:1034F000242084F83D002068016821F0010101606A
:103500002068016841F4004101602068016821F4ED
:103510000041016000F05CFA4D4A6168914201D8B7
:103520004C4900E04C49884201D2012070BD4B4912
:103530002368B0FBF1F15E6826F03F060E435E6043
:103540006368934206D94FF4967359434FF47A73E4
:10355000B1FBF3F12368491C1E6A26F03F06314394
:1035600019626168914210D84900401EB0FBF1F227
:10357000521CC2F30B02042A01D2042022E0B0FB49
:10358000F1F0401CC0F30B001CE0A268F2B301EBA9
:10359000C10303EB0116431EB3FBF6F35B1C43F4BC
:1035A00080431B0549D092B301EBC10202EB01112C
:1035B000401EB0FBF1F0401CC0F30B0040F4804013
:1035C00040F400402168CA694CF6FF739A431043E7
:1035D000C861D4E9071001432068026822F0C002E4
:1035E00011430160D4E9030101432068826848F275
:1035F000FF339A4311438160D4E9050108432168F0
:10360000CA6822F0FF021043C86001E00EE016E035
:103610002068016841F0010101602564202084F8E0
:103620003D00256384F83E50002070BD01EB41064B
:10363000431EB3FBF6F35B1CB3E70120C2E701EBCB
:103640004101401EB0FBF1F0401CC0F30B00B7E796
:10365000A086010080841E0000093D0040420F004A
:1036600010B586B0044614216846FCF765FE134980
:10367000206888421FD11248016841F02001016092
:103680000068122100F0200005900320CDE9000120
:103690000121CDE902100420049069460948FFF792
:1036A000B1FD07481030016841F4800101600068F5
:1036B00000F48000059006B010BD000000580040E6
:1036C00030380240001402400248816802781144F8
:1036D00081607047380000200B4810B5016841F444
:1036E00000710160016841F480610160016841F48A
:1036F00080710160032000F09FF8002000F006F8C0
:1037000000F050F8002010BD003C024030B50546E6
:103710001F4887B00024016841F010010160006873
:1037200006A900F01000009001A800F031F90498FB
:10373000A8B100F04DF940001649174AB0FBF1F16D
:103740001648491E026040F2E732C0E90324C0E98E
:103750000114846100F014FD040003D015E000F0B2
:1037600037F9E9E70D4800F067FD04000DD1362078
:1037700000F034F8102D07D200222946362000F040
:103780003BF80748056000E0012407B0204630BD43
:103790004038024040420F0000100040F433002047
:1037A0003C0000200C4882B0016841F48041016077
:1037B000006800F4804000900748001F016841F055
:1037C000805101600068002200F0805000900F21BD
:1037D000901E02B000F010B844380240002809DB07
:1037E00000F01F02012191404009800000F1E0201B
:1037F000C0F8001170470000F0B40E4B1B680C4677
:10380000C3F30223C3F10705042D00D90425191DB4
:10381000072901D2002300E0DB1E012606FA05F18C
:10382000491E214099409E40761E16403143F0BC0F
:1038300004F0F6B90CED00E0064900F00702086854
:103840004FF6FF03184040EA0220034A1043086085
:10385000704700000CED00E00000FA052DE9F0478C
:103860000E46050065D0DFF81481D8F80000F7B2E5
:1038700000F00F00B04207D288F80070D8F80000BE
:1038800000F00F00B04254D128683D4C810712D59A
:10389000400703D5206840F4E050206028780007F6
:1038A00003D5206840F4604020602068A96820F0BB
:1038B000F000084320602878C0072DD030496868A0
:1038C0000839012812D0022813D0032811D0096822
:1038D000890700292DDA216821F0030101432160C5
:1038E000FFF7B4FD814641F2883A0EE0096889038A
:1038F000EFE709688901ECE7FFF7A8FDA0EB0901F4
:10390000514502D90320BDE8F0872068696800F0BE
:103910000C00B0EB810FEFD1D8F80010404601F059
:103920000F01B14207D90770006800F00F00B042E4
:1039300001D00120E7E72878400705D52068E9682D
:1039400020F4E050084320602878000706D520685E
:10395000296920F4604040EAC100206000F058F876
:103960002168084AC1F30311515CC8400649086048
:1039700006480068FFF7CAFE0020C4E7003C02408A
:10398000083802402CAA0008440000203C00002017
:103990000F2202600C4A136803F0030343601368AC
:1039A00003F0F0038360136803F4E053C36012680C
:1039B0004FF4E05303EAD20202610448006800F0C9
:1039C0000F0008607047000008380240003C0240C9
:1039D0000448054900680968044AC1F38221515C22
:1039E000C840704744000020083802403CAA000844
:1039F0000448054900680968044AC1F34231515C32
:103A0000C840704744000020083802403CAA000823
:103A1000154810B5006810F00C02144813D0144972
:103A2000042A0FD0082A0ED10F4C241F22682368C5
:103A300002F03F025B0207D52068C0F38810A0FBAC
:103A4000010106E0084610BD2168C1F38811A1FB01
:103A500000010023FCF726FC2168C1F30141491C49
:103A60004900B0FBF1F010BD083802400024F4001A
:103A7000001BB7002DE9F84F04006ED02078DFF866
:103A80004C93C007A9F104054AD009F1040001686C
:103A9000C1F38101012908D00068C0F38100022828
:103AA0000AD1D9F80000400206D52868800337D52E
:103AB00060680028E1D033E06068B0F5803F10D046
:103AC000B0F5A02F286810D020F480302860286836
:103AD00020F4802028606068A8B1FFF7B7FC064694
:103AE0000DE0286840F48030F4E740F4802028603E
:103AF000F7E700BFFFF7AAFC801B642873D828688B
:103B00008003F7D50CE0FFF7A1FC064605E000BFF7
:103B1000FFF79CFC801B6428F0D828688003F7D44A
:103B20002078DFF8AC8280074FF0000A3ED5A74826
:103B3000001D016811F00C0F08D00068C0F381006F
:103B400002280BD1D9F80000400207D4286880076A
:103B500016D5E068012800D112E033E1E068B8B181
:103B60000120C8F80000FFF771FC064605E000BF21
:103B7000FFF76CFC801B0228C0D828688007F7D5A7
:103B80002868216920F0F80040EAC10028600DE0B3
:103B9000C8F800A0FFF75AFC064604E0FFF756FC01
:103BA000801B02281FD828688007F7D420780007D8
:103BB00022D5864F87486169703771B10121016054
:103BC000FFF744FC064604E0FFF740FC801B022898
:103BD00009D838688007F7D50EE0C0F800A0FFF7D5
:103BE00035FC064605E082E0FFF730FC801B02282A
:103BF0007DD838688007F7D42078400768D5DFF88B
:103C0000CCB100270BF13C0BDBF80000C0000BD45B
:103C1000DBF8001041F08051CBF80010DBF8000019
:103C2000012700F0805000906B4E3068C00510D422
:103C3000306840F480703060FFF708FC009005E0C9
:103C4000FFF704FC0099401A022850D83068C005DC
:103C5000F6D55E4EA0686C3601280FD00528306876
:103C600010D020F001003060306820F00400306097
:103C7000A068B8B1FFF7EAFB00900FE0306840F0B1
:103C80000100F4E740F004003060F7E7FFF7DEFBE7
:103C90000099411A41F28830814266D83068800725
:103CA000F4D50EE0FFF7D2FB009007E0FFF7CEFB64
:103CB0000099411A41F28830814256D83068800715
:103CC000F4D42FB1DBF8001021F08051CBF80010B4
:103CD000A069C8B33D49091D0968C1F381010229E2
:103CE0004AD00228504607D0C8F8600000E03CE007
:103CF000FFF7ACFB04463BE04746C8F86000FFF71F
:103D0000A5FB064605E000BFFFF7A0FB801B0228CD
:103D10002BD828688001F7D4D4E907010843A16AA9
:103D20002E4A490802EB0141626A41EA82110843C6
:103D300094F82C1040EA0161C9F80010012038669F
:103D4000FFF784FB044606E03EE000BFFFF77EFB82
:103D5000001B022809D828688001F7D534E000BF8D
:103D6000FFF774FB001B022802D90320BDE8F88F7F
:103D700028688001F4D427E00128F7D0D9F80000A2
:103D8000E26900F4800191421CD1226A00F03F01F7
:103D9000914217D147F6C071626A0140B1EB821FB0
:103DA00010D1A26A4FF0FF3300F4403103EB52020E
:103DB000B1EB024F06D194F82C1000F07060B0EB1C
:103DC000016F01D00120D1E70020CFE70438024085
:103DD00000004742800E4742007000400000FFFF95
:103DE00070B5040009D0606A002540B125616561A5
:103DF000A56294F8510040B10CE0012070BD6068EC
:103E0000B0F5827FF4D0E561F2E784F850502046A7
:103E100000F044F8022084F851002068016821F085
:103E200040010160A088218900F4827001F40441FE
:103E30000843A18901F400610843217C01F00201DB
:103E40000843217D01F001010843218B01F4007139
:103E50000843217F01F03801084394F8201001F055
:103E600080010843218D01F4005108432168086056
:103E7000A069042101EA104094F8241001F0100117
:103E80000843216848602068C16921F40061C1616C
:103E90006565012084F85100002070BD10B586B022
:103EA000044614216846FCF747FA14492068884202
:103EB00021D113480021026842F480120260006898
:103EC00000F4801005900E481438026842F0200279
:103ED0000260006800F0200005904FF460700090D0
:103EE0000220CDE9010103200390052004906946DA
:103EF0000448FFF787F906B010BD000000500140EC
:103F000044380240001402402DE9F84F044690F86E
:103F1000500000270A9E1D4692468B464FF001092D
:103F200001280ED0012084F85000FFF78FFA804658
:103F300094F85100616801280CD0B1F5827F07D157
:103F400002E00220BDE8F88FA16809B9042801D079
:103F50000227C2E0BBF1000F27D0BAF1000F24D036
:103F60001DB394F85100042802D0052084F85100B4
:103F700000206065C4F838A0E587A587C4F830B094
:103F8000E586A5862064606420680168490603D43C
:103F9000016841F040010160E068B0F5006F6068C1
:103FA00005D0E8B3012D46D07FE0012795E008B1A8
:103FB000012D39D1206B21680088C860206B801CDE
:103FC0002063E08E401EE0862EE02068816889072D
:103FD0000FD5E18E69B1B9F1010F0AD1216B0988C2
:103FE000C160206B801C2063E08E401EE0864FF095
:103FF000000920688168C9070CD0E18F51B1C06801
:10400000A16B0880A06B801CA063E08F401EE0873E
:104010004FF00109FFF71AFAA0EB0800B04200E0E8
:1040200009E001D3701C50D1E08E0028CDD1E08F83
:104030000028CAD13FE0206B216800780873206B0C
:10404000401C2063E08E401EE0862EE020688168E0
:1040500089070FD5E18E69B1B9F1010F0AD1216B42
:1040600009780173206B401C2063E08E401EE086BF
:104070004FF0000920688168C9070CD0E18F51B169
:10408000C068A16B0870A06B401CA063E08F401E4D
:10409000E0874FF00109FFF7D9F9A0EB0800B04223
:1040A00002D3701C01D010E07EB1E08E0028CDD18B
:1040B000E08F0028CAD142463146204602F0C6F8B9
:1040C00028B101272020606507E0032705E0A068EC
:1040D00018B92068C16880680090012084F85100F8
:1040E000002084F8500038462CE7704770470000E5
:1040F00070B590F83C20012A32D0012480F83C4071
:10410000022280F83D2003685A689D6822F07006FC
:104110000A6832435A60134B02689A4214D0B2F1D3
:10412000804F11D0104B9A420ED0104B9A420BD0B8
:104130000F4B9A4208D00F4B9A4205D00E4B9A4231
:1041400002D00E4B9A4204D1496825F080031943EE
:10415000916080F83D40002180F83C10084670BD19
:10416000022070BD00000140000400400008004033
:10417000000C0040000401400040014000180040D5
:1041800010B5040003D094F83D0010B107E0012001
:1041900010BD002084F83C00204600F01FF80220EB
:1041A00084F83D00211D206802F06AFA012084F89D
:1041B000460084F83E0084F83F0084F8400084F80C
:1041C000410084F8420084F8430084F8440084F8F5
:1041D000450084F83D00002010BD000008B5124ADB
:1041E00001681248914207D1016841F00201016063
:1041F000006800F0020009E00D4A914208D1016810
:1042000041F020010160006800F02000009008BD2E
:10421000084A9142FBD1016841F040010160006809
:1042200000F04000F2E70000000400404038024087
:10423000001400400018004090F83D10012901D002
:1042400001207047022180F83D100168CA6842F0E1
:104250000102CA6000681149884214D0B0F1804F51
:1042600011D00F4988420ED00E4988420BD00E491A
:10427000884208D00D49884205D00D49884202D0B5
:104280000C49884204D1816801F00701062903D056
:10429000016841F001010160002070470000014009
:1042A0000004004000080040000C004000040140F1
:1042B000004001400018004070B5044690F83C00F2
:1042C0000025012817D0012684F83C60022084F8DC
:1042D0003D002068826822F0770222F47F428260EB
:1042E0000868502838D00DDC20284FD005DC90B36A
:1042F000102811D14AE0022070BD302846D0402855
:104300000AD13BE060282FD070280DD0B0F5805F37
:1043100003D0B0F5005F12D0012584F83D60002085
:1043200084F83C00284670BDCB68D1E901212068A3
:1043300002F017FA2068816841F0770109E0CB6844
:10434000D1E90121206802F00CFA2068816841F46B
:1043500080418160E1E719E0CA684968206802F09D
:10436000D5FA5021206806E0CA684968206802F042
:10437000DEFA6021206802F0FEF9CEE7CA684968DB
:10438000206802F0C3FA40212068F4E72268014661
:104390001046F0E7704770B50446006801694FF0B9
:1043A0000005C943890715D4C168C943890711D4D9
:1043B000E91E01610120207720688069800720467E
:1043C00002D0FFF7E7FF04E000F0DAF8204600F043
:1043D0006CF9257720680169C943490717D4C1687A
:1043E000C943490713D46FF004010161022020770B
:1043F0002068806910F4407F204602D0FFF7CAFF92
:1044000004E000F0BDF8204600F04FF92577206861
:104410000169C943090716D4C168C943090712D401
:104420006FF008010161042020772068C0698007CF
:10443000204602D0FFF7AEFF04E000F0A1F82046CE
:1044400000F033F9257720680169C943C90617D4FC
:10445000C168C943C90613D46FF010010161082077
:1044600020772068C06910F4407F204602D0FFF713
:1044700091FF04E000F084F8204600F016F925775B
:1044800020680169C943C90708D1C168C943C90780
:1044900004D1891E0161204600F06CF92068016991
:1044A000C943090609D4C168C943090605D46FF098
:1044B000800101612046FFF718FE20680169C943A9
:1044C000490609D4C168C943490605D46FF04001C3
:1044D0000161204600F06CF920680169C943890632
:1044E0000BD4C168C943890607D46FF0200101616C
:1044F0002046BDE87040FFF7F9BD70BD10B586B02D
:10450000044614216846FBF717FF2368174C002167
:1045100017480222A34210D1036843F0020303604C
:10452000006800F00200059020200090CDE90121F4
:10453000CDE9031269460F4813E00F4CA34212D194
:10454000036843F080030360006800F0800005907A
:1045500040200090CDE901210920CDE903106946F2
:104560000648FEF74FFE06B010BD000000040040F4
:10457000303802400004024000180040001C024095
:10458000704770B5044690F83C0000260D4601289F
:104590000FD0012084F83C006AB1042A1DD0082AFB
:1045A0002FD00C2A3FD00126002084F83C00304652
:1045B00070BD022070BD206802F0E6F820688169B5
:1045C00041F0080181612068816921F00401816165
:1045D000206881692A69114311E0206802F004F91A
:1045E0002068816941F4006181612068816921F45A
:1045F00080618161206881692A6941EA02218161C3
:10460000D2E7206802F026F92068C16941F008016C
:10461000C1612068C16921F00401C1612068C169DC
:104620002A69114311E0206802F048F92068C16945
:1046300041F40061C1612068C16921F48061C161F8
:104640002068C1692A6941EA0221C161ACE710B55D
:10465000040003D094F83D0010B107E0012010BD24
:10466000002084F83C00204600F01EF8022084F868
:104670003D00211D206802F003F8012084F8460067
:1046800084F83E0084F83F0084F8400084F841003C
:1046900084F8420084F8430084F8440084F845001C
:1046A00084F83D00002010BD7047704710B50446E7
:1046B000022249B104290ED0082913D094F84100F0
:1046C000012816D0012010BD94F83E000128F9D130
:1046D00084F83E200FE094F83F000128F2D184F8DE
:1046E0003F2008E094F840000128EBD184F84020F6
:1046F00001E084F841200122206802F025F81649E3
:104700002068164A884201D0904203D1436C43F49A
:10471000004343642068884213D0B0F1804F10D02A
:104720000F4988420DD00F4988420AD00E4988426D
:1047300007D0904205D00D49884202D00C498842EA
:1047400004D1816801F00701062903D0016841F016
:1047500001010160002010BD000001400004014083
:104760000004004000080040000C004000400140F0
:104770000018004010B5044600680A49884201D17B
:10478000FEF7A2FF08492068884209D1FEF79CFF86
:10479000064801684268491C42F10002016042601B
:1047A00010BD000000100040001400403000002048
:1047B00070477047704770B5040004D094F83D000E
:1047C000002510B106E0012070BD84F83C50204661
:1047D00000F022F8242084F83D002068C16821F40C
:1047E0000051C160204602F06DFA2068016921F491
:1047F000904101612068416921F02A0141612068EE
:10480000C16841F40051C1602564202084F83D0056
:1048100084F83E00002070BD2DE9F04F87B00546BA
:1048200014216846FBF788FD9248DFF8448210386F
:10483000D5F800C0DFF83CA2022203210823DFF8EC
:1048400038E20024061587154FF0206BC44559D176
:10485000DAF80080A14648F08048CAF80080DAF80B
:1048600000C00CF0804CCDF814C0D0F800C04CF063
:10487000100CC0F800C0006800F010000590CDE9F1
:104880000313C8018DE8150069467046FEF7BAFCAF
:10489000DFF8ECA179495046D84602C0E0E802B4FE
:1048A0004FF4003BE0E8034640F8044C80E89008F1
:1048B0005046CAF82440FEF7C1FB08B1FDF7B8F92D
:1048C0006F4C6E486034C5F838A03038CAF838509C
:1048D000C4E900084020A060C4E9039604F118016F
:1048E0004846C4F8149081E881082046C4F8249012
:1048F000FEF7A4FB08B1FDF79BF96C63A56307B055
:10490000BDE8F08FDFF87C81C4451BD1DAF8006088
:1049100046F00046CAF80060DAF8005005F000459D
:104920000595056845F010050560006800F0100069
:1049300005908DE81600CDE9031369467046FEF731
:1049400061FCDCE7DFF84081DFF82891C44509F11C
:10495000040944D1D9F800C04CF0100CC9F800C0CB
:10496000D9F8003003F010030593036843F0020305
:104970000360006800F002000590C020CDE900024D
:104980000120CDE902010720049069463F48FEF767
:1049900039FCDFF8EC803E4908F1C0084046C8F811
:1049A00000104FF00061C0E90114C0E90346C8F8E7
:1049B0001440C0E90647C8F82040C8F82440FEF774
:1049C0003DFB08B1FDF734F9C5F838800022052118
:1049D0002520C8F83850FEF70FFF252045E0DFF806
:1049E000B480C4458BD1D9F8008048F02008C9F8BC
:1049F0000080D9F800C00CF0200CCDF814C0D0F81D
:104A000000C04CF0400CC0F800C0006800F040004E
:104A10000590CDE903134FF484408DE815006946F5
:104A20001D48FEF7EFFB1A49DFF870801839404641
:104A3000C8F80010C0E901B4C0E90346C8F8144042
:104A4000C0E90647C8F82040C8F82440FEF7F6FA47
:104A500008B1FDF7EDF8C5F83880002205214720A0
:104A6000C8F83850FEF7C8FE4720FEF7B7FE46E705
:104A70000078004040380240001002405860024078
:104A800074320020007C004000100140000402400D
:104A9000406402400014014000180240943300209A
:104AA00090F83E30202B0ED159B152B190F83C30E5
:104AB000012B08D0012380F83C300023036302F06F
:104AC00087B9012070470220704700000C2202497C
:104AD0000248FFF7E5BF0000E88A002064310020AB
:104AE000704700002DE9F843044690F83D001F464A
:104AF00016460D4620284CD1C5B1BEB194F83C00F5
:104B0000012846D0012084F83C004FF00008C4F88A
:104B10004080212084F83D00FEF798FCA684814661
:104B2000E684A068B0F5805F03D004E00120BDE812
:104B3000F883206928B12E465FF0000584F83C8098
:104B40000EE00026FAE78021204602F08BF9A0B99A
:104B5000AEB116F8010B21684860E08C401EE0847D
:104B6000E08C4B464FF0000200970028EBD14FF04D
:104B70004001204602F076F930B10320D7E735F83E
:104B8000020BC0F30800E6E7202084F83D00002077
:104B9000CDE70220CBE7000070B5044690F83D0059
:104BA000202836D191B38AB394F83C00012830D044
:104BB000012084F83C002162A284E284002525645F
:104BC000212084F83D00636B1348D863636B13485E
:104BD0001864636B1248D864606B134605652668D9
:104BE000606B321DFEF7B7FA21686FF04000086075
:104BF00084F83C502068143050E8001F41F08001D8
:104C000040E80012002AF5D1002070BDFFE7012026
:104C1000FBE70220F9E700000F6C0008516C000868
:104C2000296B0008282202490248FFF7B5BF00009F
:104C3000F48A0020643100207047FEE710B530216F
:104C40006A20FCF7DFF80A20FEF7BCFA0D212420C9
:104C5000FCF7D8F80A20FEF7B5FA0E212820FCF759
:104C6000D1F80A20FEF7AEFA8E213120FCF7CAF8FF
:104C70000A20FEF7A7FA01210B2000F09BF80A207A
:104C8000FEF7A0FA002000F059F8102801D001200A
:104C900010BD01210B2000F08DF80A20FEF792FADA
:104CA00000210A2000F086F80A2000F047F808B139
:104CB000022010BD0A20FEF785FA00210B2000F02B
:104CC00079F80B2000F03AF808B1032010BD0A2053
:104CD000FEF778FA2421412000F06CF8412000F022
:104CE0002DF8242801D0042010BD0A20FEF76AFA0E
:104CF000C021422000F05EF8422000F01FF8C028DA
:104D000001D0052010BD0A20FEF75CFA00212A2000
:104D1000FCF778F80A20FEF755FA00213420FCF75A
:104D200071F80A20FEF74EFA062203210E20FBF747
:104D3000D7FE6420FEF746FA002010BDF8B5014604
:104D40003220FCF75FF80A20FEF73CFA802134207D
:104D5000FCF758F80A20FEF735FA134E00224021DE
:104D60003046FEF76EFB114CB52037252070621CD3
:104D70000123511E0E480095FFF7C6F8621C01235F
:104D8000511E0B480095FFF7BFF801224021304625
:104D9000FEF757FB647800213420FCF733F80A2033
:104DA000FEF710FA2046F8BD00140240B4030020BC
:104DB0003430002070B50D46044600212A20FCF74F
:104DC00021F80220FEF7FEF921462920FCF71AF807
:104DD0000220FEF7F7F929466420FCF713F80220B9
:104DE000FEF7F0F981212A20FCF70CF8BDE87040AD
:104DF0000A20FEF7E7B910B5044680EC020A70EE0F
:104E0000600AD0ED031AC0ED041A90ED021A80ED8D
:104E1000031AC0ED020A30EEC10A90ED052A20EE19
:104E2000020AB0EE002A80ED080A90ED060A20EE94
:104E3000200A41EE420A80ED090A94ED071A70EE4D
:104E4000A10A60EE810AC4ED0A0AD4ED0D0AB1EEA2
:104E5000601A02F078FE84ED090AD4ED080A30EEFB
:104E6000800AD4ED0A0A30EE200A84ED0B0AD4ED54
:104E70000D0AB1EE601AD4ED0C0A02F064FE84ED66
:104E80000B0A10BD2DE9F047B7EE003A2DED048B6B
:104E90000446B0EE438A9FED540AD0ED010AD0EDEE
:104EA000021A90ED031A70EEE13A9FED502AF3EEEC
:104EB000032A4F4A41EE023A4E4B63EEA23AC0ED4E
:104EC000093A70EEA13A41EE023A63EEA23AC0ED21
:104ED0000A3A71EEE03AF1EE600A002070EEE10A63
:104EE00041EE023A41EE020A63EEA23A60EEA20AF5
:104EF000C4ED0B3AC4ED0C0A04EB800194ED051AE5
:104F0000D1ED090A60EE810AC1ED090A157D3DB1B6
:104F100092ED061A31EE031A60EE810AC1ED090A1C
:104F2000F0EEE00AF4EEC00AF1EE10FA01DDB0EEA8
:104F3000600A10EE101A994203DDDFED2F0A80EEB1
:104F4000808A401C0428D7DBDFF8B080DFF8B090FF
:104F5000DFED2C8A2C4FDFF8B4A09FED2D9ADFED0A
:104F60002D9A002504EB850090ED090A60EE080AF1
:104F7000B0EE680AC0ED090AD9F8001008EBC500C8
:104F80008847BDEEC00A07EB451610EE100A00B2C6
:104F90003082B6F9041000EE101ADAF80010F8EEBC
:104FA000C00A00EE100A1C48B8EEC00A8847BDEEE1
:104FB000C00AB0EE491AF0EE690A10EE100A00B20B
:104FC00000EE100A7083B8EEC00A02F0BCFDBDEE20
:104FD000C00A6D1C042D10EE100A7083C2DBBDECFC
:104FE000048BBDE8F087000000000000C3F5A83E78
:104FF000AC87002000A00C4600A00C468483002053
:105000007C030020000048438C8600206C030020B5
:10501000000080C6000080463C010020284801783E
:10502000AA2916D180F84410427880F845208AB128
:105030000146012A497927D0022A0AD1827880F8CC
:105040005C20C27880F85D20027980F85E2080F8CC
:105050005F107047D0E9011200EE101AC0E9181273
:10506000F0EEC00A10EE902A16498A4201DD80ED6A
:10507000150A90ED190AF0EEC00A10EE902A8A4245
:10508000E7DD80ED160A704790F9022000EE102A45
:10509000F8EEC00A9FED0C0A60EE800AC0ED120A1D
:1050A00090F9032000EE902AF8EEE00A20EE800A44
:1050B00080ED130A027980F8502080F85110704773
:1050C000E88A00200AD7233CCDCCCC3D10B50C2279
:1050D00005490648FFF7E4FC03492822BDE81040D3
:1050E0000C310248FFF758BDE88A002064310020E7
:1050F00070B5244D2DED048B95ED190A9FED228A94
:10510000DFED228A9FED229A30EE080AB0EE681A8F
:10511000F0EE490A02F017FD1E4CB0EE681AF0EEF0
:10512000490A84ED0E0A95ED1F0A30EE080A02F0D6
:105130000AFD84ED0F0A95ED1E0AB0EE681AF0EE36
:10514000490A30EE080A02F0FEFC84ED100AAA209B
:105150002073D4ED0E0ABCEEC00AFCEEE00A10EE9D
:10516000900A6073D4ED0F0AFCEEE00A10EE900A8C
:10517000A07310EE100AE07394F834002074BDECB4
:10518000048B70BD908500200000004300000000EB
:1051900000007F43E88A0020002101708170417087
:1051A000C170017170478178491CCAB201218270B7
:1051B000C170012A02D90171017001E0027902B1C6
:1051C00000214170704700005D4B00B593F82A0044
:1051D000C10703F12C0002D0FFF7E5FF01E0FFF764
:1051E000DBFF93F82A008107554800F1310002D512
:1051F000FFF7D9FF01E0FFF7CFFF93F82A0041073F
:105200004F4800F1360002D5FFF7CDFF01E0FFF770
:10521000C3FF93F82A000107494800F13B0002D57B
:10522000FFF7C1FF01E0FFF7B7FF93F82A00C106BF
:10523000434800F1400002D5FFF7B5FF01E0FFF75A
:10524000ABFF93F82A0081063D4800F1450002D5E6
:10525000FFF7A9FF01E0FFF79FFF93F82A0041063F
:10526000374800F14A0002D5FFF79DFF01E0FFF744
:1052700093FF93F82A000106314800F14F0002D550
:10528000FFF791FF01E0FFF787FF588DC1052C481C
:1052900000F1540002D5FFF786FF01E0FFF77CFF25
:1052A000588D8105264800F1590002D5FFF77BFF94
:1052B00001E0FFF771FF588D4105214800F15E00C4
:1052C00002D5FFF770FF01E0FFF766FF588D01057B
:1052D0001B4800F1630002D5FFF765FF01E0FFF70F
:1052E0005BFF588DC104164800F1680002D5FFF736
:1052F0005AFF01E0FFF750FF588D8104104800F17C
:105300006D0002D5FFF74FFF01E0FFF745FF588D15
:1053100041040B4800F1720002D5FFF744FF01E0A1
:10532000FFF73AFF588D0104054800F1770003D5D7
:105330005DF804EBFFF737BF5DF804EBFFF72CBF18
:105340001085002010B51248059B41F664149AB2EE
:10535000B0F9001052BA418012B21B0C02805BBA45
:105360008380531A0146E342B1F9181001DA491C4F
:1053700004E041F66414A34201DD491E0183B0F943
:10538000181002EB41314161818B491C818310BDB2
:105390008C87002038B50021009104490023024683
:1053A0008C6819460248A04738BD0000E02C002058
:1053B000B82F0020401EC3B21D48DDE9032100EBD9
:1053C00043100388438093B25BBA120C038052BA35
:1053D00082808AB252BAC28009140172B0F90220E6
:1053E00019B2891A41F66412D14202DA018B491CC2
:1053F00005E041F66412914202DD018B491E0183F2
:10540000B0F900109FED0B1A00EE101AB0F9181049
:1054100000EE901AB8EEC00AF8EEE00A00EE810A3B
:10542000BDEEC00A80ED050A818B491C818370475F
:105430008C8600200000004638B50093034BDC68E2
:1054400013460A4601460248A04738BDE02C00201A
:10545000902F002030B51249DDE906321C0C9DB2B8
:1054600093B2A0F5007042F3074201380DD0012835
:105470000AD168BA088460BA888458BAC88481F8A6
:105480002820888F401C888730BD68BA088060BAA1
:10549000888058BAC8800A72888B401C888330BDC7
:1054A0000C87002038B500220092044A0023D468FB
:1054B0000A4601460248A04738BD0000E02C002003
:1054C000B82F0020104810B50E490160032141603B
:1054D00000214FF410228160C0E903124FF4001242
:1054E00042610176012242768276C2760177417767
:1054F000FDF79CFB002803D0BDE81040FCF798BBEB
:1055000010BD000000640040902F0020104810B52E
:105510000E4901600321416000214FF41022816097
:10552000C0E903124FF40012426101760122427673
:105530008276C27602774177FDF778FB002803D0A8
:10554000BDE81040FCF774BB10BD000000680040CF
:10555000B82F0020194808B5016841F480010160A6
:10556000016801F480010091016841F400110160BB
:105570000068002200F40010009005210C20FEF7C6
:105580003BF90C20FEF72AF9002205210E20FEF738
:1055900033F90E20FEF722F9002205213920FEF70B
:1055A0002BF93920FEF71AF9002211463A20FEF7AE
:1055B00023F9BDE808403A20FEF710B93038024020
:1055C00030B53A4DBDB031AC95E80F0084E80F001E
:1055D000002131A803F071FF354C10350DF1D40CCA
:1055E000E06195E80F008CE80F00002135A8103D20
:1055F00003F063FF2035206295E80F0039AD85E8A0
:105600000F00002139A803F058FF284960621C22CE
:1056100030316846FAF777FE0021684603F060FFF4
:10562000224920601C224C3107A8FAF76CFE0021A9
:1056300007A803F055FF1D4960601C2268310EA8C1
:10564000FAF761FE00210EA803F04AFF1749A06097
:105650001C22843115A8FAF756FE002115A803F084
:105660003FFF1249E0601C22A0311CA8FAF74BFE54
:1056700000211CA803F034FF0C4920611C22BC311E
:1056800023A8FAF740FE002123A803F029FF0749C9
:1056900060611C22D8312AA8FAF735FE00212AA819
:1056A00003F01EFFA0613DB030BD000030A900082E
:1056B0000000002070B586B014216846FAF73CFE61
:1056C0002E480025016841F010010160016801F0D9
:1056D00010010591016841F002010160016801F0CB
:1056E00002010591016841F040010160016801F08B
:1056F00040010591016841F001010160016801F07C
:1057000001010591016841F008010160016801F0A3
:1057100008010591016841F020010160016801F074
:1057200020010591016841F0800101600068144E7C
:1057300000F080000590012240213046FDF781FEF7
:1057400001244020CDE9000469463046CDE90245F8
:10575000FDF758FD042000904FF48810CDE90104B6
:1057600069460848FDF74EFD002205210820FEF796
:1057700043F80820FEF732F806B070BD303802401A
:105780000014024000040240144810B512490160A0
:105790001349416000214FF480428160C0E9031247
:1057A00041618161C1610162FDF796FE08B1FCF7BC
:1057B0003FFA10210948FDF74FFE08B1FCF738FA0F
:1057C00000210648FDF769FE002803D0BDE810401F
:1057D000FCF72EBA10BD000000580040E02F00205A
:1057E000A0860100104810B50E4901604FF4827187
:1057F000416000218160C1604FF400720161C0E925
:1058000005123022C0E90721416281620A21C1628A
:10581000FEF7E6FA002803D0BDE81040FCF708BA0E
:1058200010BD0000005001403430002010B58CB095
:1058300000240794089409941C2168460A94FAF7F6
:105840007BFD1948174901602A21C0E90114C46091
:1058500004618461FEF794FC08B1FCF7E9F94FF4A8
:105860008050079007A91048FEF726FD08B1FCF705
:10587000DFF90D48FEF7EBFE08B1FCF7D9F960201F
:10588000CDE9000402940022694607480494FEF71B
:1058900078FE08B1FCF7CCF90348FEF72FFE0CB0F8
:1058A00010BD0000001800401C31002010B58EB063
:1058B00000240794089409940A940B941C216846C8
:1058C0000C94FAF739FD1E481C49C0E9001441F256
:1058D0008731C0E9024104618461FEF751FC08B1DF
:1058E000FCF7A6F94FF48050079007A91448FEF77B
:1058F000E3FC08B1FCF79CF91148FEF7A8FE08B1DB
:10590000FCF796F90B940BA90D480C94FEF7F0FBED
:1059100008B1FCF78DF96020CDE90004029404225F
:10592000694607480494FEF72CFE08B1FCF780F99D
:105930000348FEF7E3FD0EB010BD00000004004078
:105940008C3000201CB500240E4800940C490194B2
:1059500001605421C0E9011432218461C160FEF765
:105960000FFC08B1FCF764F90094694605480194FE
:10597000FEF7BEFB002801D0FCF75AF91CBD000061
:1059800000140040D43000200C4810B50A490160D2
:105990004FF4E1314160002181600C22C160C0E917
:1059A00004128161C161FEF706FF002803D0BDE843
:1059B0001040FCF73DB910BD007800406431002074
:1059C0000C4810B50A4901604FF4E13141600021F3
:1059D00081600C22C160C0E904128161C161FEF7DF
:1059E000EAFE002803D0BDE81040FCF721B910BD45
:1059F000007C0040A83100200C4810B50A49016025
:105A00000B494160002181600C22C160C0E9041291
:105A10008161C161FEF7CFFE002803D0BDE81040D0
:105A2000FCF706B910BD000000100140EC31002069
:105A3000A08601000C4810B50A4901604FF4E1311D
:105A40004160002181600C22C160C0E904128161C3
:105A5000C161FEF7B0FE002803D0BDE81040FCF79E
:105A6000E7B810BD0014014030320020FEE7FEE729
:105A700010B5044680EC020A70EE600A90ED021A3E
:105A800080ED031AC0ED020A90ED050A20EE200A0F
:105A900080ED080A90ED090AD0ED061A01EEA00A81
:105AA00070EEC10A80ED090A90ED071A60EE810AD6
:105AB000C4ED0A0AD4ED0D0AB1EE601A02F043F803
:105AC00084ED090AD4ED080A30EE800AD4ED0A0A02
:105AD00030EE200A84ED0B0AD4ED0C0AB1EE601A08
